S0110000617474696E795F66772E737265633E
S113000009C019C018C017C016C015C014C013C049
S113001012C011C011241FBECFE9CDBF10E0A0E66D
S1130020B0E0ECE9F0E002C005900D92A638B1070B
S1130030D9F702D031C0E4CFB99ABA9ABC98B89A29
S11300408FB583608FBD8FB580688FBD83B7887F80
S1130050826083BF88E890E0C19AC298E0E6F0E04D
S1130060DF012C91129626BFC7E5D2E02197F1F764
S113007000C00000A817B907A1F7C198C29A20814F
S1130080329626BFA7E5B2E01197F1F700C0000051
S10F0090E817F907A1F7E0CFF894FFCFC0
S113009C190032004B0064007D009600AF00C800CC
S11300ACE100FA00E100C800AF0096007D00640096
S10900BC4B0032001900A4
S9030000FC
